{
  "_format": "hh-sol-artifact-1",
  "contractName": "KUSDOracle",
  "sourceName": "src/contracts/KUSDOracle.sol",
  "abi": [
    {
      "inputs": [
        {
          "internalType": "bytes32",
          "name": "_asset",
          "type": "bytes32"
        }
      ],
      "stateMutability": "nonpayable",
      "type": "constructor"
    },
    {
      "anonymous": false,
      "inputs": [
        {
          "indexed": true,
          "internalType": "address",
          "name": "usr",
          "type": "address"
        }
      ],
      "name": "Deny",
      "type": "event"
    },
    {
      "anonymous": false,
      "inputs": [
        {
          "indexed": true,
          "internalType": "address",
          "name": "node",
          "type": "address"
        },
        {
          "indexed": false,
          "internalType": "string",
          "name": "reason",
          "type": "string"
        }
      ],
      "name": "NodeDeactivated",
      "type": "event"
    },
    {
      "anonymous": false,
      "inputs": [
        {
          "indexed": true,
          "internalType": "address",
          "name": "node",
          "type": "address"
        },
        {
          "indexed": false,
          "internalType": "uint256",
          "name": "stake",
          "type": "uint256"
        }
      ],
      "name": "NodeRegistered",
      "type": "event"
    },
    {
      "anonymous": false,
      "inputs": [
        {
          "indexed": true,
          "internalType": "uint256",
          "name": "price",
          "type": "uint256"
        },
        {
          "indexed": false,
          "internalType": "uint256",
          "name": "timestamp",
          "type": "uint256"
        },
        {
          "indexed": false,
          "internalType": "address",
          "name": "updater",
          "type": "address"
        }
      ],
      "name": "PriceUpdate",
      "type": "event"
    },
    {
      "anonymous": false,
      "inputs": [
        {
          "indexed": true,
          "internalType": "address",
          "name": "usr",
          "type": "address"
        }
      ],
      "name": "Rely",
      "type": "event"
    },
    {
      "inputs": [],
      "name": "MAX_DEVIATION",
      "outputs": [
        {
          "internalType": "uint256",
          "name": "",
          "type": "uint256"
        }
      ],
      "stateMutability": "view",
      "type": "function"
    },
    {
      "inputs": [],
      "name": "MIN_SOURCES",
      "outputs": [
        {
          "internalType": "uint256",
          "name": "",
          "type": "uint256"
        }
      ],
      "stateMutability": "view",
      "type": "function"
    },
    {
      "inputs": [],
      "name": "STALENESS_THRESHOLD",
      "outputs": [
        {
          "internalType": "uint256",
          "name": "",
          "type": "uint256"
        }
      ],
      "stateMutability": "view",
      "type": "function"
    },
    {
      "inputs": [],
      "name": "asset",
      "outputs": [
        {
          "internalType": "bytes32",
          "name": "",
          "type": "bytes32"
        }
      ],
      "stateMutability": "view",
      "type": "function"
    },
    {
      "inputs": [
        {
          "internalType": "address",
          "name": "nodeAddress",
          "type": "address"
        },
        {
          "internalType": "string",
          "name": "reason",
          "type": "string"
        }
      ],
      "name": "deactivateNode",
      "outputs": [],
      "stateMutability": "nonpayable",
      "type": "function"
    },
    {
      "inputs": [
        {
          "internalType": "address",
          "name": "usr",
          "type": "address"
        }
      ],
      "name": "deny",
      "outputs": [],
      "stateMutability": "nonpayable",
      "type": "function"
    },
    {
      "inputs": [
        {
          "internalType": "uint256",
          "name": "newPrice",
          "type": "uint256"
        }
      ],
      "name": "emergencyUpdatePrice",
      "outputs": [],
      "stateMutability": "nonpayable",
      "type": "function"
    },
    {
      "inputs": [],
      "name": "getActiveNodeCount",
      "outputs": [
        {
          "internalType": "uint256",
          "name": "",
          "type": "uint256"
        }
      ],
      "stateMutability": "view",
      "type": "function"
    },
    {
      "inputs": [],
      "name": "getPriceData",
      "outputs": [
        {
          "internalType": "uint256",
          "name": "price",
          "type": "uint256"
        },
        {
          "internalType": "uint256",
          "name": "timestamp",
          "type": "uint256"
        },
        {
          "internalType": "bool",
          "name": "valid",
          "type": "bool"
        }
      ],
      "stateMutability": "view",
      "type": "function"
    },
    {
      "inputs": [],
      "name": "invalidatePrice",
      "outputs": [],
      "stateMutability": "nonpayable",
      "type": "function"
    },
    {
      "inputs": [],
      "name": "isFresh",
      "outputs": [
        {
          "internalType": "bool",
          "name": "",
          "type": "bool"
        }
      ],
      "stateMutability": "view",
      "type": "function"
    },
    {
      "inputs": [
        {
          "internalType": "uint256",
          "name": "",
          "type": "uint256"
        }
      ],
      "name": "nodeList",
      "outputs": [
        {
          "internalType": "address",
          "name": "",
          "type": "address"
        }
      ],
      "stateMutability": "view",
      "type": "function"
    },
    {
      "inputs": [
        {
          "internalType": "address",
          "name": "",
          "type": "address"
        }
      ],
      "name": "nodes",
      "outputs": [
        {
          "internalType": "address",
          "name": "nodeAddress",
          "type": "address"
        },
        {
          "internalType": "uint256",
          "name": "stake",
          "type": "uint256"
        },
        {
          "internalType": "uint256",
          "name": "reputation",
          "type": "uint256"
        },
        {
          "internalType": "bool",
          "name": "active",
          "type": "bool"
        },
        {
          "internalType": "uint256",
          "name": "lastUpdate",
          "type": "uint256"
        }
      ],
      "stateMutability": "view",
      "type": "function"
    },
    {
      "inputs": [],
      "name": "peek",
      "outputs": [
        {
          "internalType": "bytes32",
          "name": "",
          "type": "bytes32"
        },
        {
          "internalType": "bool",
          "name": "",
          "type": "bool"
        }
      ],
      "stateMutability": "view",
      "type": "function"
    },
    {
      "inputs": [],
      "name": "priceData",
      "outputs": [
        {
          "internalType": "uint256",
          "name": "price",
          "type": "uint256"
        },
        {
          "internalType": "uint256",
          "name": "timestamp",
          "type": "uint256"
        },
        {
          "internalType": "bool",
          "name": "valid",
          "type": "bool"
        }
      ],
      "stateMutability": "view",
      "type": "function"
    },
    {
      "inputs": [],
      "name": "read",
      "outputs": [
        {
          "internalType": "bytes32",
          "name": "",
          "type": "bytes32"
        }
      ],
      "stateMutability": "view",
      "type": "function"
    },
    {
      "inputs": [
        {
          "internalType": "address",
          "name": "nodeAddress",
          "type": "address"
        },
        {
          "internalType": "uint256",
          "name": "stake",
          "type": "uint256"
        }
      ],
      "name": "registerNode",
      "outputs": [],
      "stateMutability": "nonpayable",
      "type": "function"
    },
    {
      "inputs": [
        {
          "internalType": "address",
          "name": "usr",
          "type": "address"
        }
      ],
      "name": "rely",
      "outputs": [],
      "stateMutability": "nonpayable",
      "type": "function"
    },
    {
      "inputs": [],
      "name": "requiredConfirmations",
      "outputs": [
        {
          "internalType": "uint256",
          "name": "",
          "type": "uint256"
        }
      ],
      "stateMutability": "view",
      "type": "function"
    },
    {
      "inputs": [
        {
          "internalType": "uint256",
          "name": "newPrice",
          "type": "uint256"
        },
        {
          "internalType": "uint256[]",
          "name": "sourcePrices",
          "type": "uint256[]"
        },
        {
          "internalType": "bytes32[]",
          "name": "sources",
          "type": "bytes32[]"
        }
      ],
      "name": "updatePrice",
      "outputs": [],
      "stateMutability": "nonpayable",
      "type": "function"
    },
    {
      "inputs": [
        {
          "internalType": "address",
          "name": "",
          "type": "address"
        }
      ],
      "name": "wards",
      "outputs": [
        {
          "internalType": "uint256",
          "name": "",
          "type": "uint256"
        }
      ],
      "stateMutability": "view",
      "type": "function"
    }
  ],
  "bytecode": "0x60a0604052600360065534801561001557600080fd5b506040516112df3803806112df83398101604081905261003491610078565b60808190523360008181526020819052604080822060019055517fdd0e34038ac38b2a1ce960229778ac48a8719bc900b6c4f8d0475c6e8b385a609190a250610091565b60006020828403121561008a57600080fd5b5051919050565b6080516112336100ac60003960006101f301526112336000f3fe608060405234801561001057600080fd5b50600436106101375760003560e01c8063665d668a116100b8578063a4a281681161007c578063a4a28168146102e3578063a4f15c6d1461030d578063b05f233a14610320578063bf353dbb14610329578063c5ea2b8714610349578063e61a5fe41461035157600080fd5b8063665d668a146102a35780637215b0bf146102ab57806382e717f7146102b45780638f537ca8146102bd5780639c52a7f1146102d057600080fd5b8063555386c4116100ff578063555386c41461024057806357de26a41461025357806359e02dd71461025b5780636268ceaa1461027857806365fae35e1461029057600080fd5b8063189a5a171461013c578063208f2a31146101c357806338d52e0f146101ee5780633b7abb051461022357806354627af014610238575b600080fd5b61018a61014a366004610ee3565b6004602081905260009182526040909120805460018201546002830154600384015493909401546001600160a01b03909216939092909160ff9091169085565b604080516001600160a01b03909616865260208601949094529284019190915215156060830152608082015260a0015b60405180910390f35b6101d66101d1366004610efe565b610366565b6040516001600160a01b0390911681526020016101ba565b6102157f000000000000000000000000000000000000000000000000000000000000000081565b6040519081526020016101ba565b610236610231366004610f17565b610390565b005b610215600381565b61023661024e366004610fe6565b610495565b6102156106a0565b610263610724565b604080519283529015156020830152016101ba565b61028061076d565b60405190151581526020016101ba565b61023661029e366004610ee3565b610788565b6102366107fc565b610215610e1081565b61021560065481565b6102366102cb366004610efe565b610837565b6102366102de366004610ee3565b6108f7565b60015460025460035460ff165b6040805193845260208401929092521515908201526060016101ba565b61023661031b366004611060565b61096a565b6102156103e881565b610215610337366004610ee3565b60006020819052908152604090205481565b610215610b51565b6001546002546003546102f092919060ff1683565b6005818154811061037657600080fd5b6000918252602090912001546001600160a01b0316905081565b336000908152602081905260409020546001146103c85760405162461bcd60e51b81526004016103bf9061108a565b60405180910390fd5b6001600160a01b03831660009081526004602052604090206003015460ff166104335760405162461bcd60e51b815260206004820152601a60248201527f4b5553444f7261636c652f6e6f64652d6e6f742d61637469766500000000000060448201526064016103bf565b6001600160a01b03831660008181526004602052604090819020600301805460ff19169055517f7d4442641ef9cf201769cbb64e481e45bdcb2113c1f5a2e03054a958659f1e839061048890859085906110c1565b60405180910390a2505050565b3360009081526004602052604090206003015460ff166104f75760405162461bcd60e51b815260206004820152601a60248201527f4b5553444f7261636c652f6e6f64652d6e6f742d61637469766500000000000060448201526064016103bf565b600085116105175760405162461bcd60e51b81526004016103bf906110f0565b60038310156105685760405162461bcd60e51b815260206004820152601f60248201527f4b5553444f7261636c652f696e73756666696369656e742d736f75726365730060448201526064016103bf565b8281146105b75760405162461bcd60e51b815260206004820152601c60248201527f4b5553444f7261636c652f6d69736d6174636865642d6172726179730000000060448201526064016103bf565b6105c2858585610bcd565b6106195760405162461bcd60e51b815260206004820152602260248201527f4b5553444f7261636c652f70726963652d76616c69646174696f6e2d6661696c604482015261195960f21b60648201526084016103bf565b60408051606081018252868152426020808301829052600192840183905288835560028290556003805460ff19169093179092553360008181526004808552908590200182905583519182529181019190915286917fc25b2dced4384fb51ce018b01853e1c22dcfdf8b2c95ab0f8672e44b8b31f24c910160405180910390a25050505050565b60035460009060ff166106c55760405162461bcd60e51b81526004016103bf906110f0565b600254610e10906106d6904261113d565b111561071d5760405162461bcd60e51b81526020600482015260166024820152754b5553444f7261636c652f7374616c652d707269636560501b60448201526064016103bf565b5060015490565b6000806000610e1060018001544261073c919061113d565b600354911015915060009060ff1680156107535750815b8015610760575060015415155b6001549590945092505050565b600254600090610e1090610781904261113d565b1115905090565b336000908152602081905260409020546001146107b75760405162461bcd60e51b81526004016103bf9061108a565b6001600160a01b03811660008181526020819052604080822060019055517fdd0e34038ac38b2a1ce960229778ac48a8719bc900b6c4f8d0475c6e8b385a609190a250565b3360009081526020819052604090205460011461082b5760405162461bcd60e51b81526004016103bf9061108a565b6003805460ff19169055565b336000908152602081905260409020546001146108665760405162461bcd60e51b81526004016103bf9061108a565b600081116108865760405162461bcd60e51b81526004016103bf906110f0565b60408051606081018252828152426020808301829052600192840183905284835560028290556003805460ff19169093179092558251908152339181019190915282917fc25b2dced4384fb51ce018b01853e1c22dcfdf8b2c95ab0f8672e44b8b31f24c910160405180910390a250565b336000908152602081905260409020546001146109265760405162461bcd60e51b81526004016103bf9061108a565b6001600160a01b038116600081815260208190526040808220829055517f184450df2e323acec0ed3b5c7531b81f9b4cdef7914dfd4c0a4317416bb5251b9190a250565b336000908152602081905260409020546001146109995760405162461bcd60e51b81526004016103bf9061108a565b6001600160a01b0382166109ef5760405162461bcd60e51b815260206004820152601a60248201527f4b5553444f7261636c652f696e76616c69642d6164647265737300000000000060448201526064016103bf565b6001600160a01b03821660009081526004602052604090206003015460ff1615610a5b5760405162461bcd60e51b815260206004820152601e60248201527f4b5553444f7261636c652f6e6f64652d616c72656164792d616374697665000060448201526064016103bf565b6040805160a0810182526001600160a01b038481168083526020808401868152606485870190815260016060870181815260006080890181815287825260048088528b83209a518b546001600160a01b031990811691909b16178b5595518a850155935160028a0155905160038901805460ff1916911515919091179055915196909201959095556005805491820181559094527f036b6384b5eca791c62761152d0c79bb0604c104a5fb6f4eb0703f3154bb3db09093018054909216811790915591518381527ff773bca07d020a1bc1fdd45ea3db573da547dd27180143afaf075c158a847594910160405180910390a25050565b600080805b600554811015610bc7576004600060058381548110610b7757610b77611150565b60009182526020808320909101546001600160a01b0316835282019290925260400190206003015460ff1615610bb55781610bb181611166565b9250505b80610bbf81611166565b915050610b56565b50919050565b60006003821015610be057506000610c48565b6000610bec8484610c4f565b90506000818611610c1d5781610c02878261113d565b610c0e9061271061117f565b610c1891906111ac565b610c3e565b81610c28818861113d565b610c349061271061117f565b610c3e91906111ac565b6103e81015925050505b9392505050565b6000808267ffffffffffffffff811115610c6b57610c6b6111c0565b604051908082528060200260200182016040528015610c94578160200160208202803683370190505b50905060005b83811015610cea57848482818110610cb457610cb4611150565b90506020020135828281518110610ccd57610ccd611150565b602090810291909101015280610ce281611166565b915050610c9a565b5060005b60018251610cfc919061113d565b811015610e1b5760005b6001828451610d15919061113d565b610d1f919061113d565b811015610e085782610d328260016111d6565b81518110610d4257610d42611150565b6020026020010151838281518110610d5c57610d5c611150565b60200260200101511115610df6576000838281518110610d7e57610d7e611150565b6020026020010151905083826001610d9691906111d6565b81518110610da657610da6611150565b6020026020010151848381518110610dc057610dc0611150565b60209081029190910101528084610dd88460016111d6565b81518110610de857610de8611150565b602002602001018181525050505b80610e0081611166565b915050610d06565b5080610e1381611166565b915050610cee565b50600060028251610e2c91906111ac565b905060028251610e3c91906111e9565b600003610ea2576002828281518110610e5757610e57611150565b602002602001015183600184610e6d919061113d565b81518110610e7d57610e7d611150565b6020026020010151610e8f91906111d6565b610e9991906111ac565b92505050610ec1565b818181518110610eb457610eb4611150565b6020026020010151925050505b92915050565b80356001600160a01b0381168114610ede57600080fd5b919050565b600060208284031215610ef557600080fd5b610c4882610ec7565b600060208284031215610f1057600080fd5b5035919050565b600080600060408486031215610f2c57600080fd5b610f3584610ec7565b9250602084013567ffffffffffffffff80821115610f5257600080fd5b818601915086601f830112610f6657600080fd5b813581811115610f7557600080fd5b876020828501011115610f8757600080fd5b6020830194508093505050509250925092565b60008083601f840112610fac57600080fd5b50813567ffffffffffffffff811115610fc457600080fd5b6020830191508360208260051b8501011115610fdf57600080fd5b9250929050565b600080600080600060608688031215610ffe57600080fd5b85359450602086013567ffffffffffffffff8082111561101d57600080fd5b61102989838a01610f9a565b9096509450604088013591508082111561104257600080fd5b5061104f88828901610f9a565b969995985093965092949392505050565b6000806040838503121561107357600080fd5b61107c83610ec7565b946020939093013593505050565b60208082526019908201527f4b5553444f7261636c652f6e6f742d617574686f72697a656400000000000000604082015260600190565b60208152816020820152818360408301376000818301604090810191909152601f909201601f19160101919050565b60208082526018908201527f4b5553444f7261636c652f696e76616c69642d70726963650000000000000000604082015260600190565b634e487b7160e01b600052601160045260246000fd5b81810381811115610ec157610ec1611127565b634e487b7160e01b600052603260045260246000fd5b60006001820161117857611178611127565b5060010190565b8082028115828204841417610ec157610ec1611127565b634e487b7160e01b600052601260045260246000fd5b6000826111bb576111bb611196565b500490565b634e487b7160e01b600052604160045260246000fd5b80820180821115610ec157610ec1611127565b6000826111f8576111f8611196565b50069056fea26469706673582212205902caba3c6c3d811a2ff5b0f66e88d756105c22d13dee42d8ca2b477f76ddff64736f6c63430008130033",
  "linkReferences": {},
  "deployedLinkReferences": {}
}